:020000040800F2
:1000000048040020111B0008710A0008730A000848
:10001000750A0008770A0008790A00080000000045
:100020000000000000000000000000007B0A000843
:100030007D0A0008000000007F0A0008810A00080D
:100040002B1B00082B1B00082B1B00082B1B000878
:100050002B1B00082B1B00082B1B00082B1B000868
:100060002B1B00082B1B00082B1B00082B1B000858
:100070002B1B00082B1B00082B1B00082B1B000848
:100080002B1B00082B1B00082B1B00082B1B000838
:100090002B1B00082B1B00082B1B00082B1B000828
:1000A0002B1B00082B1B00082B1B00082B1B000818
:1000B0002B1B00082B1B00082B1B00082B1B000808
:1000C0002B1B00082B1B00082B1B00082B1B0008F8
:1000D0002B1B00082B1B00082B1B00082B1B0008E8
:1000E0002B1B00082B1B00082B1B00082B1B0008D8
:1000F0002B1B00082B1B00082B1B00082B1B0008C8
:100100002B1B00082B1B00082B1B00082B1B0008B7
:100110002B1B00082B1B00082B1B00082B1B0008A7
:100120002B1B00082B1B00082B1B00082B1B000897
:10013000DFF80CD005F09AFB004800475B0200088E
:1001400048040020F8B50121042001F01AF9022426
:10015000ADF800401025FE4E8DF803508DF802409A
:100160006946304600F023FF0121042001F009F91F
:100170004020ADF8000004208DF803008DF8024007
:100180006946304600F013FF0121042001F0F9F820
:100190008020ADF800008DF803508DF802406946CC
:1001A000304600F004FF0121042001F0EAF820208D
:1001B000ADF800008DF803508DF8024069463046D6
:1001C00000F0F5FE0121042001F0DBF8ADF800504D
:1001D0008DF803508DF802406946304600F0E7FE86
:1001E0000121082001F0CDF80120ADF800008DF8C4
:1001F00003508DF802406946D64800F0D8FEF8BD9D
:1002000010B5D44C0121204600F041FF0A2004F033
:10021000C8FF04F0D3FF05F04FF805F015F84120B2
:1002200005F01EF80121204600F02FFF0A2004F0FF
:10023000B8FF0121204600F02AFF0A2004F0B1FF98
:100240000121204600F021FF0A2004F0AAFF2046E9
:10025000BDE81040012100F01ABF9AB0022000262C
:1002600081460D9064200290B246B046374605960E
:100270001422B9490FA805F0B5FAB8A10225D1E9B1
:100280000001CDE90901FFF75DFFFFF7B9FF01F0BC
:1002900051FC01F09FFC01F06DFC01F027FD4FF4D3
:1002A000165001F039FD02F0BBF805F0A3F8DFF8B5
:1002B000B4B200201024ABF80000ABA0CDE90040A0
:1002C0002346C8222821642004F056FCA8A0CDE9CA
:1002D000004000211023C822084604F04DFCA6A0CF
:1002E000CDE900401023C822FA213C2004F044FC50
:1002F0004FF47841ABF80010A4A0CDE900401023E2
:10030000C82246213C2004F037FCA5A0CDE90040DE
:100310001023C8225A213C2004F02EFCA3A0CDE9D2
:1003200000401023C82282213C2004F025FCA3A019
:10033000CDE900401023C82296213C2004F01CFC8B
:10034000A2A0CDE900401023C822BE213C2004F029
:1003500013FC1F20ABF80000A0A0CDE90040102343
:10036000C8226E213C2004F007FC19A9522004F099
:100370006CFD20BB14A804F093FD00BB14A804F08E
:10038000F6FDE0B914AB09AA0721602004F022FEB3
:10039000009014AB09AA0721602004F043FE0190ED
:1003A000009860B9042015A904F07FFE38B9012037
:1003B0000D9042F2107001F0F5FB04F080FF002078
:1003C00001F02EFC042809D0032863D002287DD038
:1003D00001287CD0B9F1010F7AD07BE24FF478404C
:1003E000ABF8000081A0CDE900404FF000091023D8
:1003F000C822BE213C206D1C04F0BEFB73A0CDE9D9
:1004000000401023C822BE213C2004F0B5FB7CA094
:10041000CDE900401023C822D2213C2004F0ACFBDF
:100420001F21ABF80010022D08D0032D14D0042D8D
:1004300020D0052D23D0012D27D04BE267A0CDE998
:1004400000401023C8226E213C2004F095FB4FF49D
:100450007841ABF80010FFE054A0CDE90040102334
:10046000C82282213C2004F087FB4FF47840ABF88F
:100470000000DDE01023C82250A0962156E00025A0
:100480001023C82241A04621F3E01023C82244A033
:100490005A2138E04FF47841ABF8001053A0CDE971
:1004A00000404FF000091023C822BE213C206D1EE1
:1004B00004F062FB45A0CDE900401023C822BE2114
:1004C0003C2004F059FB4EA0102302E0E0E029E1BB
:1004D00096E1CDE90040C822D2213C2004F04CFB3B
:1004E0001F20ABF80000022D1CD0012D2CD0002DB8
:1004F0002BD02BDA4FF0040530A04FF010034FF053
:10050000C8024FF09601CDE900404FF03C0004F0E6
:1005100033FB4FF47840ABF800001023C8221BA037
:100520004621F9E01023C8222CA06E21CDE900401D
:100530003C2004F021FB4FF47840ABF8000010237E
:10054000C8221AA08221E7E064E077E08AE0000098
:1005500000080140000C0140D05B0008FFFFFFFFD6
:10056000FFFF00002E0000204D43552041544D0058
:1005700054696D653A000000446576656C6F70657E
:1005800072204D722E4C756F000000004D696E6533
:1005900072616C2077617465722031524D420000A7
:1005A000436F6C612033524D42000000416C636F19
:1005B000686F6C203130524D62000000546F6261F0
:1005C00063636F203230524D42000000506C656111
:1005D00073652073656C6563740000004D696C6B16
:1005E00079207465612035524D420000506C656180
:1005F00073652073656C6563742020202000000003
:1006000020202020202020202020202020202020EA
:1006100020000000AFF27800CDE900401023C8228E
:100620005A213C2004F0A8FA4FF47841ABF80010AE
:10063000AFF258001023C8226E216DE0AFF2B40073
:10064000CDE900401023C82246213C2004F094FA52
:100650004FF47840ABF80000AFF2BC001023C82282
:100660005A2159E0032D49D1AFF2C0001023C8220E
:100670008221CDE900403C2004F07EFA4FF478401E
:10068000ABF80000AFF2CC001023C822962143E063
:1006900000200D904FF001094FF48071BE4800F02A
:1006A000EAFCC0F10100C2B24FF48071BA4800F018
:1006B000F0FCBA4801F076FA4FF48071B64800F0C9
:1006C000DAFCC0F10100C2B24FF48071B24800F010
:1006D000E0FC1F21ABF80010B1A0CDE900401023D1
:1006E000C822D2213C2004F047FA45B1012D08D0A0
:1006F000022D08D0032D08D0042D0BD0EAE0ACA0C9
:1007000004E0AFA002E0B2A000E0B5A01023C82230
:10071000BE2101E0B7A0F9E7CDE900403C2004F09C
:100720002BFAD7E002251F204FF00009ABF800009C
:10073000AFF25810CDE900401023C8226E213C20B2
:1007400004F01AFA4FF47841ABF80010AFF2C4107D
:10075000CDE900401023C82246213C2004F00CFAC9
:10076000AFF2C410CDE900401023C8225A213C202A
:1007700004F002FAAFF2CC10CDE900401023C822F9
:1007800082213C2004F0F8F9AFF2D010CDE900400E
:100790001023C82296213C2004F0EEF9E9017E489E
:1007A00000F069FCC0F10100C2B2E9017A4800F032
:1007B00070FC7A4801F0F6F9E901774800F05BFC3B
:1007C000C0F10100C2B2E901734800F062FCAFF26F
:1007D000E410CDE900401023C822BE213C2004F0E3
:1007E000CBF9AFF21820CDE900401023C822BE217A
:1007F0003C2004F0C1F91023C82283A0D2218BE74A
:100800000D98012866D10198682801D084A07DE761
:100810004FF480794946604800F02DFCC0F101009A
:10082000C2B249465C4800F034FC0FA8029950F867
:1008300025000690081A0290584801F0B3F949467D
:10084000554800F018FCC0F10100C2B249465248B8
:1008500000F01FFC1F20ABF80000002081460D9027
:10086000029800280BDB73A0CDE900401023C822BA
:10087000BE213C2004F080F9012007900EE073A017
:10088000CDE900401023C822BE213C2004F074F9B9
:1008900000200790069902980844029070A0CDE9C4
:1008A00000401023C822D2213C2004F065F98020AA
:1008B000CDE900400223D2218220029A04F01BF9E4
:1008C00007990298CDE90001DDE90510534642463B
:1008D00004F0B5FE761CF6B242F2107001F062F937
:1008E0000A2E7FF442AD614E2021304600F0C3FB5A
:1008F000C0F10100C2B22021304600F0CAFB264EF2
:100900002021304600F0B7FBC0F10100C2B2202127
:10091000304600F0BEFB7F1C0026A7F580702D3806
:1009200000D10127052097FBF0F000F0FF0ABAF193
:100930003C0F11D108F1010000F0FF08B8F13D0FA4
:1009400003D0B8F13C0F03D006E04FF0010803E0FC
:100950000598401CC0B205900020ABF80000802034
:10096000CDE90040022352460021502004F0C3F894
:100970008020CDE900400223424600213C2004F0C3
:10098000BAF88020CDE90040022300212820059AF2
:1009900004F0B1F8E9E40000000C0140A086010079
:1009A0002020202020202020202020202020200067
:1009B000506C65617365207061793A31524D420027
:1009C000506C65617365207061793A33524D420015
:1009D000506C65617365207061793A35524D420003
:1009E000506C65617365207061793A3130524D42C7
:1009F00000000000506C65617365207061793A32C7
:100A000030524D42000000002020202020202020D5
:100A10002020202020202020202020202020000016
:100A20004572726F722043617220202020202020A6
:100A30002020000050617953756373657373667588
:100A40006C202020202020200000000050617946EA
:100A500061696C2020202020202020202000000020
:100A600042616C616E63653A00000000001801404D
:100A70007047FEE7FEE7FEE7FEE770477047704706
:100A800001F098B88100A1F1C04148B143F2D20011
:100A9000C1F800006FF070404860C1F80401704771
:100AA0004FF0204243F2DB001060F3E710B518244A
:100AB00040234FF020414FF0FC32102805D041F880
:100AC000804F4B608A60CA6010BD0C664B668A66B8
:100AD000CA6610BD4FF02040182140F8A01F002129
:100AE00041604FF0FC318160C1600161704710B519
:100AF000D0E901121143D0E903231A43114342699B
:100B0000114382691143C2691143026A1143426A67
:100B10001143826A1143C26A1143026B1143026896
:100B20009200A2F1C04211608168082907D10168D2
:100B30008900A1F1C0410A6842F040020A60416B9D
:100B4000D1E9002342EA03128B688C891B0243EA35
:100B500004431A430B8A42EA03520B7D896942EA35
:100B600003620A4301688900A1F1C0414A60C16A79
:100B7000B1F5804F08D000686FF070418000A0F19F
:100B8000C040C0F8041110BD816BD1E9002342EAD6
:100B900003128B680C8A1B0243EA04531A430B7D31
:100BA000896942EA036200680A438000A0F1C040FC
:100BB000C0F8042110BD30B5D0E901121143D0E9CD
:100BC00003231A431143426941EA4221826941EAFF
:100BD0004231C26941F00804D2E9001341EA03211D
:100BE0001389127B1B0443EA0262036A1143D3E9AF
:100BF000002542EA05221D891B7B2D0445EA03637B
:100C00001A4303684FF02040102B04D040F8804F67
:100C10008160C26030BD04668166C26630BD10B5B9
:100C2000D0E9001241EA42228168102343EA4131AF
:100C30000A434FF0204141F8A02FC268D2E90034A6
:100C400043EA04231489127B240444EA0262134316
:100C50008B600269D2E9003443EA04231489127BD1
:100C6000240444EA02621343CB604069D0E90023C4
:100C700042EA03220389007B1B0443EA006002432B
:100C80000A6110BD10B500210222C0E90012816086
:100C9000C160016141618161D202C161C0E9081294
:100CA0005200C0E90A210163436B0F221A60436BB3
:100CB0005A60446BFF23A360446BE260446B226183
:100CC000446B6261446BA161846B2260846B6260DF
:100CD000846BA360836BDA60836B1A61836B5A61E8
:100CE000806B816110BD1021016000214160816035
:100CF000C160016141618161C269FC211160C26909
:100D00005160C2699160C269D160026A1160026A71
:100D10005160026A9160006AC16070470021016001
:100D200041608160C268FC211160C2685160C26884
:100D30009160C268D1600269116002695160026904
:100D400091600269D16042691160426951604269F3
:100D500091604069C16070478000A0F1C0400029E7
:100D6000016802D041F0010101E0644A11400160D4
:100D700070474FF0204251B1102804D052F8800F34
:100D800040F004000AE0106E40F004000AE05B4905
:100D9000C91E102804D052F8800F08401060704718
:100DA000106E0840106670474FF02041002851F83F
:100DB000A00F02D040F0040002E0504AD21E1040C2
:100DC000086070474FF0204251B1102804D052F80B
:100DD000800F40F040000AE0106E40F040000AE052
:100DE00046493F39102804D052F8800F084010605F
:100DF0007047106E0840106670474FF02041102871
:100E000002D0D1F894007047486F704710B54FF486
:100E100080744FF0204372B1102804D0A04205D155
:100E200053F8840F04E0586E08430DE053F8A40F04
:100E30000843186010BD102804D0A04206D153F812
:100E4000840F05E0586E8843586610BD53F8A40F10
:100E50008843EEE7034600204FF02042102B08D0D5
:100E6000B3F5807F07D0D2F8A4200A4200D0012039
:100E70007047526EF9E7D2F88420F6E74FF020422F
:100E8000102807D0B0F5807F08D052F8A40F88430F
:100E900010607047506E88435066704752F8840F58
:100EA000F5E7034600204FF02042102B0CD0B3F59D
:100EB000807F0BD0D2F8A4200A4202EAD10102D0EE
:100EC000002900D001207047526EF5E7D2F8842047
:100ED000F2E74FF02042102808D0B0F5807F0AD00A
:100EE00052F8A40F20EAD10010607047506E20EA3B
:100EF000D1005066704752F8840FF3E7FEFF0F00F1
:100F0000914910B5884206D10121042000F04BFA26
:100F1000002104203BE08D49884206D101210820B0
:100F200000F041FA0021082031E08949884206D1C9
:100F30000121102000F037FA0021102027E0854918
:100F4000884206D10121202000F02DFA0021202026
:100F50001DE08149884206D10121402000F023FA9A
:100F60000021402013E07D49884206D101218020E4
:100F700000F019FA0021802009E0794988420AD15D
:100F800084150121204600F00EFA00212046BDE81C
:100F9000104000F008BA10BD10B50121084600F05D
:100FA00002FA0021BDE81040012000F0FCB9F0B5C4
:100FB000CA78002502F00F03D20601D58A781343C0
:100FC0000A784FF00F0E12F0FF0F4FF001021DD004
:100FD000D0F800400F8802FA05F63740B74211D129
:100FE0004FEA850C0EFA0CF724EA070703FA0CF413
:100FF0003C43CF78282F02D0482F02D002E0466130
:1010000000E006616D1C082DE4D304600C88FF2C01
:101010001ED944685FF0000606F1080702FA07F5DA
:101020000F882F40AF420FD14FEA860C0EFA0CF713
:10103000BC4303FA0CF73C43CF78282F00D145611D
:10104000CF78482F00D10561761C082EE4D3446088
:10105000F0BD4FF6FF710180022181700421C17043
:1010600070470246002092680A4200D00120704773
:10107000806880B2704702460020D2680A4200D0E1
:1010800001207047C06880B27047016170474161BC
:1010900070470AB10161704741617047C160704794
:1010A00041F4803282618161826181698069704727
:1010B0002C4B10B51A684FF68074224042EA00109B
:1010C0000843186010BD2849C8617047F0B5254C29
:1010D000002801DAE36900E06368420D120185B27D
:1010E000C0F301579540C0F30346032F05D0C20259
:1010F0000AD50322B240934307E023F0706263688D
:1011000023F07063636002E0AB4343F0706201B1AF
:101110002A43002801DAE261F0BD6260F0BD10B53B
:101120008A0721F003040F49130F21440F228C6812
:101130009A4094438C608A68984002438A6010BD4C
:101140000949C1F8DC00704700080140000C01406B
:10115000001001400014014000180140001C014033
:10116000002001400000014000002042A448016826
:1011700041F0010101604168A24A114041600168EB
:10118000A14A11400160016821F480210160416899
:1011900021F4FE0141604FF41F01816070479849BE
:1011A0000A6822F480320A600A6822F480220A6007
:1011B000B0F5803F07D0B0F5802F03D1086840F428
:1011C000A02008607047086840F48030F9E70246C4
:1011D000002053098A49012B0AD0022B0AD0496A00
:1011E00002F01F02012393400B4200D00120704700
:1011F0000968F5E7096AF3E718B500204FF4A06421
:1012000000903120FFF7E3FF0099491C0091A142B3
:1012100001D00028F5D03120FFF7D9FF002800D0F9
:10122000012018BD76490A6822F0F80242EAC0009F
:1012300008607047754908607047714A53680843F1
:1012400023F47C1318435060704770490866704758
:101250006B4A516821F003010143516070476848AF
:10126000406800F00C007047654A516821F0F001B9
:10127000014351607047624A516821F4E0610143C3
:10128000516070475E494A6822F4605242EAC000E9
:10129000486070475A4A0029517A01D0014300E062
:1012A0008143517270475949C1F8D8007047544A78
:1012B000516821F440410143516070475049002278
:1012C00081F8202081F82020012802D0042802D1B2
:1012D000052081F8200070474D4908607047484953
:1012E0000A6A02430A6270474949443908607047F4
:1012F00030B543494A6812F00C03464A03D0042B28
:1013000001D0082B21D002604A680F23424C03EA27
:101310001212A35C0268DA4042604B68072505EAB6
:101320001323E35C22FA03F383604B6805EAD323BB
:10133000E35CDA40C2604968032303EA9131231F6A
:10134000595CB2FBF1F1016130BD4A684B6802F4AF
:1013500070124FF0020413F4803F04EB924202D06B
:101360004B689B0301D52D4B00E02A4B5A43CAE73B
:10137000234A0029516901D0014300E081435161B2
:1013800070471F4A0029916901D0014300E0814361
:10139000916170471A4A0029D16901D0014300E0E8
:1013A0008143D1617047164A0029D16801D00143B9
:1013B00000E08143D1607047114A0029116901D0D2
:1013C000014300E0814311617047114940390860D1
:1013D00070470E49C86470470949C871704708488A
:1013E000416A41F0807141627047054A0146002020
:1013F00092680A4200D00120704701498872704704
:10140000001002400000FFF8FFFFF6FE000042421D
:101410008004424200127A000400002000093D00CE
:10142000994910B588420AD1841401212046FFF75A
:10143000BAFF2046BDE810400021FFF7B4BF934932
:10144000884202D10121041404E0914988420AD162
:101450000121C4132046FFF7AFFF2046BDE810402E
:101460000021FFF7A9BF10BD30B502884C8802F4F7
:1014700041530A88CD8822438C882C4322430C890F
:1014800022434C8922438C892243CC8922431A432C
:101490000280828B22F400628283098A018230BD3D
:1014A000F0B505460C4602200021AA8B85B0012626
:1014B0004FF240031A40AA832884AF8BA268022A05
:1014C00027D0A08800B102266846FFF711FFE18807
:1014D0000098B1F5007F2DD07101B0FBF1F000BF95
:1014E00000EB8000A1684000B0FBF1F0401D80B22D
:1014F0000A21B0FBF1F000F00101401A4FF6FF7233
:10150000C0F34F0002EA0121821EFE2A01D302200D
:101510000021E288084302432A8420886188A28946
:101520000843A18811430843384340F40060A8836E
:1015300005B0F0BD000AD3E7002101804180818021
:10154000C180018141818181C18107210182704770
:101550000021018041808180C180022282608181DE
:1015600070470029018802D041F0400101E021F0DC
:101570004001018070470029818B02D041F48061D5
:1015800001E021F4806181837047090901238B40C8
:10159000002A828899B201D00A4300E08A438280FF
:1015A0007047002A828801D00A4300E08A43828083
:1015B00070478181704780897047A1F57E4201881C
:1015C000FF3A02D041F4807101E021F48071018082
:1015D00070470029818802D041F0040101E021F028
:1015E000040181807047028822F400620280028830
:1015F0000A4302807047018841F48051018070479E
:101600000029018802D041F4005101E021F4005189
:1016100001807047012901D0008B7047808A704794
:10162000008A7047B1F5804F018803D021F48041D2
:101630000180704741F48041FAE702460020128998
:101640000A4200D001207047C9430181704710B59C
:1016500001F00F040122034602FA04F400200909F4
:101660008A4091B29A88A4B20A401989214202D0D4
:10167000002A00D0012010BD01F00F02012191408D
:10168000C94301817047000000300140003800402C
:10169000003C0040C44910B588420AD101218C03A6
:1016A0002046FFF780FE2046BDE810400021FFF7EE
:1016B0007ABEBE49884202D101214C0410E0BC49E7
:1016C000884202D101218C040AE0BA49884202D141
:1016D0000121CC0404E0B84988420AD101210C055B
:1016E0002046FFF769FE2046BDE810400021FFF7C5
:1016F00063BE10BD30B50446008A85B00D464CF679
:10170000FF710840E98801432182A1894EF6F31058
:101710000140A8882A8910436A890A431043A0819E
:10172000A08A4FF6FF410840A9890143A18268467B
:10173000FFF7DEFD9C48844201D1039800E0029847
:10174000A189090400EBC00101EB0010296801D553
:10175000490000E08900B0FBF1F06422B0FBF2F137
:1017600009010B096FF018056B4300EB8300A38997
:101770001D044FF0320306D503EBC000B0FBF2F0BE
:1017800000F0070005E003EB0010B0FBF2F000F002
:101790000F000843208105B030BD4FF416510160A1
:1017A00000218180C18001810C22428181817047AA
:1017B00010B5038A4FF2FF0213400A884C88224377
:1017C0008C88C9880C4322431A43028210BD002131
:1017D000018041808180C18070470029818902D0C9
:1017E00041F4005101E021F400518181704710B5AE
:1017F000C1F3421301F01F040121A140012B07D0C6
:10180000022B07D01430002A026805D00A4304E0F6
:101810000C30F8E71030F6E78A43026010BD002A6A
:10182000828A01D00A4300E08A4382827047028A9A
:1018300022F00F020282028A0A43028270478289E2
:1018400022F40062828182890A43828170470029E2
:10185000818902D041F0020101E021F00201818181
:101860007047028A22F020020282028A0A43028220
:1018700070470029018A02D041F4804101E021F43F
:10188000804101827047C1F30801818070478088E0
:10189000C0F308007047818941F0010181817047E0
:1018A000028BD2B20283028B42EA0121018370478C
:1018B000028B02F47F420283028B0A430283704749
:1018C0000029818A02D041F0200101E021F02001AD
:1018D000818270470029818A02D041F0100101E025
:1018E00021F01001818270470029818A02D041F0E5
:1018F000080101E021F008018182704700298189F7
:1019000002D041F4004101E0C1F30E018181704732
:101910000029818A02D041F4006101E021F40061D4
:1019200081827047828A22F004028282828A0A437C
:10193000828270470029818A02D041F0020101E0D1
:1019400021F00201818270470246002012880A427B
:1019500000D001207047C9430180704730B501F0C5
:101960001F0201240025C1F3421304FA02F2012BE5
:101970000FD0022B0FD0838A4FEA11210088134227
:1019800004FA01F400EA040001D000B10125284660
:1019900030BD8389F0E7038AEEE70A0A012191400E
:1019A000C9430180704700000038014000440040F6
:1019B00000480040004C0040005000400CB50021A1
:1019C0004B4801910091026842F4803202604FF46A
:1019D000A063026802F400320092019A521C019244
:1019E000009A12B9019A9A42F3D10268920333D550
:1019F000012100913F490A6842F010020A600A681A
:101A000022F003020A600A6842F002020A6041689A
:101A1000416041684160416841F4806141604168D2
:101A200021F47C114160416841F4E8114160016892
:101A300041F08071016001688901FCD5416821F0A5
:101A400003014160416841F0020141604168C1F316
:101A500081010229FAD10CBD00910CBD244810B5BA
:101A6000016841F0010101604168234A1140416071
:101A70000168224A11400160016821F4802101605F
:101A8000416821F4FE0141604FF41F018160FFF7BE
:101A900095FF1B494FF00060086010BD144910B558
:101AA0004868184A10F00C03174803D0042B01D0E3
:101AB000082B0AD002604968134AC1F30311121DB2
:101AC000515C0268CA40026010BD4A684B6802F46B
:101AD00070124FF0020413F4803F04EB924202D0E4
:101AE0004B689B0301D5094B00E0064B5A43E1E7E5
:101AF00000100240002002400000FFF8FFFFF6FE49
:101B000008ED00E000127A001400002000093D00FA
:101B10000648804706480047FEE7FEE7FEE7FEE787
:101B2000FEE7FEE7FEE7FEE7FEE7FEE75D1A0008D8
:101B30003101000808B501210820FFF722FC01212E
:101B40004020FFF71EFC2020ADF8000003208DF898
:101B5000020010208DF8030069460448FFF727FAB9
:101B600069460348FFF723FA08BD0000000C014056
:101B700000180140134814490068B0FBF1F0B0F1BF
:101B8000807F0ED220F07F414FF0E020491E41615E
:101B90000E4AF02182F8141D0021816107210161A4
:101BA0007047FEE701B50A48009901600168002905
:101BB000FCD108BD06480168002902D00168491E11
:101BC000016070471400002040420F000FE000E069
:101BD0002800002038B501210820FFF7D2FB0121A1
:101BE0000420FFF7CEFB01214020FFF7CAFB1C2099
:101BF000ADF8000001248DF8024048208DF8030064
:101C000069463748FFF7D3F9ADF800408DF8024038
:101C100028208DF8030069463248FFF7C8F938BD1F
:101C20002DE9F041304D2F4F2D4C012608B12E707B
:101C300001E02878A0B110212046FFF712FAB0B1D8
:101C400008212046FFF70DFA88B104212046FFF74E
:101C500008FA60B101213846FFF703FA012806D0DF
:101C600010212046FFF7FDF9012825D036E042F289
:101C70001070FFF797FF0020287010212046FFF713
:101C8000F0F980B108212046FFF7EBF970B104218B
:101C90002046FFF7E6F958B101213846FFF7E1F990
:101CA000012807D01AE00120BDE8F0810220FBE7FF
:101CB0000320F9E70420F7E708212046FFF7D1F9D0
:101CC00001280BD104212046FFF7CBF9012805D1CB
:101CD00001213846FFF7C5F900B92E700020E3E76F
:101CE00000180140000801402C00002008B5012127
:101CF0000820FFF746FB4FF48070ADF8000003208A
:101D00008DF8020010208DF8030069460148FFF7A6
:101D10004EF908BD000C014070B5044686B00121A3
:101D200044F20400FFF72DFB234D2846FFF7B2FCD9
:101D30006815ADF8100003208DF8120018201F4E12
:101D40008DF8130004A93046FFF731F92815ADF8D6
:101D5000100004208DF8130004A93046FFF727F97E
:101D60000020ADF80400ADF80600ADF80800ADF8AD
:101D70000C000C20ADF80A00009469462846FFF7D5
:101D8000B9FC012240F225512846FFF730FD012120
:101D90002846FFF722FD06B070BD70B5064D04461B
:101DA000C1B22846FFF76FFD40212846FFF7CCFD62
:101DB0000028F9D0204670BD0038014000080140DD
:101DC000FE4908807047FD49891C08807047FB4820
:101DD000801C00887047F94A1080901C0180704771
:101DE000F64910B508800520FFF7DCFEF348801C9B
:101DF000008810BDF248F149008908807047EF491A
:101E0000891C08807047C0F34511C20AC00200EB6C
:101E10004110104480B27047401EC0B2FCD27047DF
:101E20002DE9F043E64EE54A3746B5880C46931C4B
:101E3000B989B7F80A80A5F5134CBCF1410C16D04E
:101E4000A5F5A647103F12D0B14696F806C03688D1
:101E5000A5F5D047361A761E043F08D0A5F5AA4747
:101E6000103F09D04B46BCF1010F07D007E01180AD
:101E7000E0B21880BDE8F083491CF8E7B0B2014633
:101E80004046FFF7A8FF98892146BDE8F043A2E746
:101E9000F0B5CB4D002634462A88824202D96A88A2
:101EA0008A4201D80020F0BDFFF7BAFFA98849F2A5
:101EB0004132C24846F6040345F2103545F2105748
:101EC000914203D0994201D0A94201D12E2305E0CD
:101ED000B94202D14FF4385300E022230380A1F528
:101EE0001340203803D10120401EC0B2FCD2B348B9
:101EF000801C012300885B1EDBB2FCD2914203D020
:101F0000A94201D0B94209D101235B1EDBB2FCD248
:101F1000C3B24FF6FF76044606EA0326A1F5134343
:101F2000253BC0D0A1F58A43353BBCD01B1DBAD0A0
:101F3000A1F50943893BB6D0A1F53543053BB2D0A5
:101F4000914203D0A94201D0B94207D16FF30A00F0
:101F5000B10A40EA411040EAD420F0BDBDE8F040AB
:101F600051E7974895498088A0F51342413A0ED031
:101F7000A0F5D042043A0AD0A0F5A642103A06D005
:101F8000B2F5007205D040F27311072023E7292033
:101F900001E04FF4245008807047894887498088C1
:101FA000A0F51342413A0DD0A0F5D042043A09D031
:101FB000A0F5A642103A05D0B2F5007204D0002177
:101FC000072008E7282001E04FF4205008807047E0
:101FD000F0B57B4C00232146A579898846F604029A
:101FE000012D18D1914216D0082814D2DFE800F054
:101FF0000406080A0C0E101206200CE007200AE066
:10200000042008E0052006E0012004E0002002E0B2
:10201000032000E00220A1F5134745F2103645F2F7
:102020001055413F05D0914203D0B14201D0A942A1
:1020300049D1082812D2DFE800F0110406080A0C82
:102040000E1080230AE0402308E0C02306E020238E
:1020500004E0602302E0A02300E0E023A94202D1D3
:102060004FF4585000E03620B14203D0A94201D0CD
:1020700043F00803914201D143F002031946FFF7F0
:10208000AAFE980614D4A079012811D0208861886E
:10209000884201D921806080484AA088911CA842CA
:1020A000A0890AD1A378C01C10805B1ED8B208E0BA
:1020B000208861888842EDD3EEE71080A078401E2A
:1020C000C0B20880F0BD082812D2DFE800F0040694
:1020D00008110A0C0E1030230AE0102308E0202318
:1020E00006E0382304E0282302E0182300E0082358
:1020F000A1F50940893805D0032043F48051BDE89B
:10210000F04068E6112046F240011943F7E700B5B8
:10211000FFF786FEFFF76EFE2A482849891C0088D3
:10212000088000BD2DE9F047254B92461F469A884E
:10213000224C0E46A51CB989B7F80A90A2F5134C9B
:10214000BCF1410C16D0A2F5A647103F12D0B7F54E
:1021500000770ED01F46A2F5D04C97F806803F8836
:102160003F1A7F1EBCF1040C04D0B8F1010F05D05A
:1021700005E0491C2180F0B2288008E0B8B2014691
:102180004846FFF728FE98893146FFF724FE188954
:102190002080A5F800A0BDE8F0872DE9F04F2C23A2
:1021A0002A242B252222212648F689194FF04E0A8F
:1021B0004FF04F0B45F2105EF02705E0FE07006C74
:1021C000380000202E000020FD4949F2413889885E
:1021D000F8B1FB484FF0010C414580F806C04FF4C0
:1021E000A07CA0F800C047800FD0A1F5A647103F03
:1021F0000BD0A1F5D047043F4ED0494550D10281C4
:10220000A0F80AB0A0F80CA060E0038144818581A9
:102210005CE0EB484FF0000C414580F806C00780B9
:102220004FF4A077478011D0A1F5D04CBCF1040C3D
:102230000CD0A1F5A04CBCF5447C07D0494514D185
:102240000281A0F80AA0A0F80CB04CE00381448100
:10225000A1F5D0428581043A03D0A1F5A642103AF7
:1022600041D107804FF4F0710FE071450FD14FF469
:10227000305101814FF4285141814FF42C5181811B
:102280004FF4F07101804FF4487141802BE00281DE
:1022900020214181868126E003814581848115E0EA
:1022A00071450FD14FF4305202814FF428524281D0
:1022B0004FF42C5282814FF4487202804FF4F07236
:1022C000428003E00281468120228281A1F5D04232
:1022D000043A03D0A1F5A642103A04D14FF4F071AC
:1022E0000180A0F802C0BDE8F04F002070E62DE9A3
:1022F000F04305461044401E86B2C818B04A0C464A
:10230000401E81B293881046AE4F8089A3F5134CCE
:1023100007F10208BCF1410C35D0A3F5A04CBCF587
:10232000447C30D0A3F5D04CBCF1040C2BD0A3F5E9
:10233000A04CBCF5A26C2BD09079012834D0374644
:10234000284626464FEA010CA3F50941893921D0D8
:1023500050224FF051094FF05208532301461046C6
:10236000FFF739FD39464846FFF735FD314640460F
:10237000FFF731FD61461846FFF72DFD214628463F
:10238000BDE8F0434CE53880C8B2A8F8000071E51C
:10239000C01CF8E7442240EA072080B29146074675
:1023A0004FF045084623D9E70F46118820468A1B7F
:1023B000521E491B491E96B21FFA81FCC4E72DE943
:1023C000F0437F4C81460025208866884643A088DC
:1023D000A0F5D041043902D1A079012809D000210B
:1023E0000846FFF71DFD00BFFFF704FD7548801C80
:1023F00013E00020A0712A2767814FF02B08A4F872
:102400000C800146FFF70CFD0120A071A4F80A80A2
:10241000A781E9E7A0F800906D1CB542FAD329E541
:102420002DE9F04F4FF48078A1B001214046FEF72E
:102430009FFF012140F26910FEF7A3FF0120ADF8D4
:102440003C0010248DF83F4003208DF83E000FA97A
:102450005D48FEF7ACFD4CF23370ADF83C0018203F
:102460008DF83F0003208DF83E000FA95748FEF776
:102470009EFD4FF68070ADF83C0018208DF83F00AF
:1024800003208DF83E000FA95148FEF790FD41F260
:102490000100ADF83C0018208DF83F0003208DF8B6
:1024A0003E000FA94B48FEF782FD0120109000204E
:1024B0000F21CDE91101139014900321CDE91801EA
:1024C0001590169017901A9006211B901C90CDE93C
:1024D0000010CDE902041D9004902102CDE908010D
:1024E0000690059007908900CDE90A010C9010A88C
:1024F0000D9017A80E906846FEF7F9FA0121062004
:10250000FEF72AFC4CF250373846FFF74BFB01210F
:102510000020FFF760FC3846FFF744FB0020FFF780
:102520005FFC274D274C49F2413AA61CA88046F68D
:10253000040B4FF6FF79FF2804D3484502D0B0F5CD
:10254000134F1ED1D3202080308809EA0021084390
:10255000A880504515D0BF212180A880584510D0B3
:10256000D4212180A0F5A641A880103909D04FF4CC
:102570005C412180A880B0F5004F02D145F2105097
:10258000A88081B214A003F0A3F9A888504504D113
:10259000EF203080112020800CE044F62065584563
:1025A00024D1112020802846FFF7FCFA2A20208021
:1025B000DF2030800C48FFF7F5FA2920FDE300000A
:1025C00038000020FE07006C000C014000140140A0
:1025D0000018014000200140204C43442049443A67
:1025E00025780D0A00000000C0D40100A0F5A64126
:1025F00010393AD0B1F5007142D0A0F513414FF433
:10260000E06A40F23F144FF4274B25397ED040F268
:102610000776C91E7BD04FF4887B083178D01139FA
:1026200001F0E681A0F5A841083901F0B782A0F5D4
:10263000A8514FF4407B053901F04C83B1F520419E
:1026400001F05A84B1F5805101F05585A0F509419A
:10265000893901F01A86A0F58A41313901F0CA861C
:10266000091F01F08C8701F07DBF552030801120BB
:102670002080FE48FFF796FA822030802C209DE7CC
:102680004FF4704355211846FFF7A5FB4FF20105A3
:10269000AA212846FFF79FFB6E1C52213046FFF708
:1026A0009AFBAF1C08213846FFF795FB4FF2040C4C
:1026B00001216046FFF78FFB0D214FF43040FFF7FB
:1026C0008AFB0D214BF20100FFF785FB0D214BF238
:1026D0000200FFF780FB4FF4364834214046FFF7F5
:1026E0007AFB34214BF20160FFF775FB34214BF28A
:1026F0000260FFF770FB4FF4314A0D215046FFF79F
:102700006AFB4BF2011B0D21584602E0FEE3FEE39B
:10271000FEE3FFF760FB0D214BF20210FFF75BFBBE
:1027200034214FF43740FFF756FB34214BF2017050
:10273000FFF751FB34214BF20270FFF74CFB0021F5
:102740004FF43240FFF747FB00214BF20120FFF727
:1027500042FB00214BF20220FFF73DFB24214FF406
:102760003840FFF738FB24214BF60100FFF733FB1D
:1027700024214BF60200FFF72EFB01214FF43F40CE
:10278000FFF729FB0F214FF43340FFF724FB0F2104
:102790004BF20130FFF71FFB0F214BF20230FFF726
:1027A0001AFB34214FF43940FFF715FB34214BF667
:1027B0000110FFF710FB34214BF60210FFF70BFB63
:1027C00008214FF43540FFF706FB08214BF201507A
:1027D000FFF701FB08214BF20250FFF7FCFA03213F
:1027E0004FF44240FFF7F7FA24214FF43A40FFF745
:1027F000F2FA24214BF60120FFF7EDFA24214BF6E3
:102800000220FFF7E8FA00214FF43C40FFF7E3FA1B
:1028100078214BF60140FFF7DEFA00214BF602402B
:10282000FFF7D9FA00214FF43D40FFF7D4FA7821A1
:102830004BF60150FFF7CFFA00214BF60250FFF79D
:10284000CAFA00214FF43E40FFF7C5FA64214BF667
:102850000160FFF7C0FA00214FF45140FFF7BBFAC7
:1028600033214DF20110FFF7B6FA00214DF20210AC
:10287000FFF7B1FA34214DF20310FFF7ACFA002153
:102880004DF20410FFF7A7FA3A214DF20510FFF7B9
:10289000A2FA00214DF20610FFF79DFA4A214DF2EF
:1028A0000710FFF798FA00214DF20810FFF793FA8E
:1028B0005C214DF20910FFF78EFA00214DF20A104B
:1028C000FFF789FA81214DF20B10FFF784FA0021FE
:1028D0004DF20C10FFF77FFAA6214DF20D10FFF715
:1028E0007AFA00214DF20E10FFF775FAE5214DF24C
:1028F0000F10FFF770FA01214DF21010FFF76BFA7D
:1029000013214DF21110FFF766FA01214DF212105A
:10291000FFF761FA54214DF21310FFF75CFA012121
:102920004DF21410FFF757FA82214DF21510FFF700
:1029300052FA01214DF21610FFF74DFACA214DF25D
:102940001710FFF748FA02214DF21810FFF743FA6B
:1029500000214DF21910FFF73EFA02214DF21A1034
:10296000FFF739FA01214DF21B10FFF734FA02216B
:102970004DF21C10FFF72FFA34214DF21D10FFF716
:102980002AFA02214DF21E10FFF725FA67214DF2B7
:102990001F10FFF720FA02214DF22010FFF71BFA5B
:1029A00084214DF22110FFF716FA02214DF2221078
:1029B000FFF711FAA4214DF22310FFF70CFA0221C0
:1029C0004DF22410FFF707FAB7214DF22510FFF75B
:1029D00002FA02214DF22610FFF7FDF9CF214DF248
:1029E0002710FFF7F8F902214DF22810FFF7F3F94D
:1029F000DE214DF22910FFF7EEF902214DF22A10E7
:102A0000FFF7E9F9F2214DF22B10FFF7E4F902216B
:102A10004DF22C10FFF7DFF9FE214DF22D10FFF7DC
:102A2000DAF903214DF22E10FFF7D5F910214DF2FE
:102A30002F10FFF7D0F903214DF23010FFF7CBF93B
:102A400033214DF23110FFF7C6F903214DF2321058
:102A5000FFF7C1F96D214DF23310FFF7BCF90021EA
:102A60004FF45240FFF7B7F9332101E0A08601008F
:102A70004DF20120FFF7AFF900214DF20220FFF7E0
:102A8000AAF934214DF20320FFF7A5F900214DF2F8
:102A90000420FFF7A0F93A214DF20520FFF79BF93A
:102AA00000214DF20620FFF796F94A214DF207204A
:102AB000FFF791F900214DF20820FFF78CF95C2116
:102AC0004DF20920FFF787F900214DF20A20FFF7A8
:102AD00082F981214DF20B20FFF77DF900214DF2A3
:102AE0000C20FFF778F9A6214DF20D20FFF773F9BE
:102AF00000214DF20E20FFF76EF9E5214DF20F2077
:102B0000FFF769F901214DF21020FFF764F9132155
:102B10004DF21120FFF75FF901214DF21220FFF76E
:102B20005AF954214DF21320FFF755F901214DF2C6
:102B30001420FFF750F982214DF21520FFF74BF9D1
:102B400001214DF21620FFF746F9CA214DF2172058
:102B5000FFF741F902214DF21820FFF73CF900215F
:102B60004DF21920FFF737F902214DF21A20FFF735
:102B700032F901214DF21B20FFF72DF902214DF210
:102B80001C20FFF728F934214DF21D20FFF723F90F
:102B900002214DF21E20FFF71EF967214DF21F2082
:102BA000FFF719F902214DF22020FFF714F98421D3
:102BB0004DF22120FFF70FF902214DF22220FFF7FD
:102BC0000AF9A4214DF22320FFF705F902214DF265
:102BD0002420FFF700F9B7214DF22520FFF7FBF87D
:102BE00002214DF22620FFF7F6F8CF214DF22720E3
:102BF000FFF7F1F802214DF22820FFF7ECF8DE2173
:102C00004DF22920FFF7E7F802214DF22A20FFF7C5
:102C1000E2F8F2214DF22B20FFF7DDF802214DF210
:102C20002C20FFF7D8F8FE214DF22D20FFF7D3F826
:102C300003214DF22E20FFF7CEF810214DF22F2068
:102C4000FFF7C9F803214DF23020FFF7C4F8332114
:102C50004DF23120FFF7BFF803214DF23220FFF78C
:102C6000BAF86D214DF23320FFF7B5F800214FF48B
:102C70005340FFF7B0F833214DF20130FFF7ABF8C6
:102C800000214DF20230FFF7A6F834214DF2033057
:102C9000FFF7A1F800214DF20430FFF79CF83A212C
:102CA0004DF20530FFF797F800214DF20630FFF79F
:102CB00092F84A214DF20730FFF78DF800214DF2CE
:102CC0000830FFF788F85C214DF20930FFF783F8F0
:102CD00000214DF20A30FFF77EF881214DF20B30D2
:102CE000FFF779F800214DF20C30FFF774F8A621B8
:102CF0004DF20D30FFF76FF800214DF20E30FFF767
:102D00006AF8E5214DF20F30FFF765F801214DF229
:102D10001030FFF760F813214DF21130FFF75BF828
:102D200001214DF21230FFF756F854214DF21330C5
:102D3000FFF751F801214DF21430FFF74CF88221D2
:102D40004DF21530FFF747F801214DF21630FFF72D
:102D500042F8CA214DF21730FFF73DF802214DF23B
:102D60001830FFF738F800214DF21930FFF733F82B
:102D700002214DF21A30FFF72EF801214DF21B30DF
:102D8000FFF729F802214DF21C30FFF724F8342117
:102D90004DF21D30FFF71FF802214DF21E30FFF7F4
:102DA0001AF867214DF21F30FFF715F802214DF296
:102DB0002030FFF710F8842100E0E5E34DF22130E8
:102DC000FFF709F802214DF22230FFF704F8A421A1
:102DD0004DF22330FEF7FFFF02214DF22430FEF7C3
:102DE000FAFFB7214DF22530FEF7F5FF02214DF233
:102DF0002630FEF7F0FFCF214DF22730FEF7EBFF34
:102E000002214DF22830FEF7E6FFDE214DF2293097
:102E1000FEF7E1FF02214DF22A30FEF7DCFFF2213E
:102E20004DF22B30FEF7D7FF02214DF22C30FEF78A
:102E3000D2FFFE214DF22D30FEF7CDFF03214DF2E2
:102E40002E30FEF7C8FF10214DF22F30FEF7C3FFE2
:102E500003214DF23030FEF7BEFF33214DF2313009
:102E6000FEF7B9FF03214DF23230FEF7B4FF6D21BA
:102E70004DF23330FEF7AFFF00214FF45440FEF720
:102E8000AAFF33214DF20140FEF7A5FF00214DF2CC
:102E90000240FEF7A0FF34214DF20340FEF79BFFF6
:102EA00000214DF20440FEF796FF3A214DF2054015
:102EB000FEF791FF00214DF20640FEF78CFF4A21FC
:102EC0004DF20740FEF787FF00214DF20840FEF764
:102ED00082FF5C214DF20940FEF77DFF00214DF29B
:102EE0000A40FEF778FF81214DF20B40FEF773FF99
:102EF00000214DF20C40FEF76EFFA6214DF20D4071
:102F0000FEF769FF00214DF20E4002E03EE3FDE3D3
:102F1000FDE3FEF760FFE5214DF20F40FEF75BFF9A
:102F200001214DF21040FEF756FF13214DF21140E2
:102F3000FEF751FF01214DF21240FEF74CFF5421E4
:102F40004DF21340FEF747FF01214DF21440FEF70A
:102F500042FF82214DF21540FEF73DFF01214DF267
:102F60001640FEF738FFCA214DF21740FEF733FF37
:102F700002214DF21840FEF72EFF00214DF21940BC
:102F8000FEF729FF02214DF21A40FEF724FF01212E
:102F90004DF21B40FEF71FFF02214DF21C40FEF7D1
:102FA0001AFF34214DF21D40FEF715FF02214DF2AC
:102FB0001E40FEF710FF67214DF21F40FEF70BFF8A
:102FC00002214DF22040FEF706FF84214DF2214000
:102FD000FEF701FF02214DF22240FEF7FCFEA42184
:102FE0004DF22340FEF7F7FE02214DF22440FEF79A
:102FF000F2FEB7214DF22540FEF7EDFE02214DF223
:103000002640FEF7E8FECF214DF22740FEF7E3FE13
:1030100002214DF22840FEF7DEFEDE214DF229406E
:10302000FEF7D9FE02214DF22A40FEF7D4FEF2212E
:103030004DF22B40FEF7CFFE02214DF22C40FEF761
:10304000CAFEFE214DF22D40FEF7C5FE03214DF2D2
:103050002E40FEF7C0FE10214DF22F40FEF7BBFEC2
:1030600003214DF23040FEF7B6FE33214DF23140E0
:10307000FEF7B1FE03214DF23240FEF7ACFE6D21AA
:103080004DF23340FEF7A7FE00214FF45540FEF706
:10309000A2FE33214DF20150FEF79DFE00214DF2BC
:1030A0000250FEF798FE34214DF20350FEF793FED6
:1030B00000214DF20450FEF78EFE3A214DF20550EC
:1030C000FEF789FE00214DF20650FEF784FE4A21EC
:1030D0004DF20750FEF77FFE00214DF20850FEF73B
:1030E0007AFE5C214DF20950FEF775FE00214DF28B
:1030F0000A50FEF770FE81214DF20B50FEF76BFE79
:1031000000214DF20C50FEF766FEA6214DF20D5047
:10311000FEF761FE00214DF20E50FEF75CFEE52148
:103120004DF20F50FEF757FE01214DF21050FEF701
:1031300052FE13214DF21150FEF74DFE01214DF2CA
:103140001250FEF748FE54214DF21350FEF743FE95
:1031500001214DF21450FEF73EFE82214DF2155032
:10316000FEF739FE01214DF21650FEF734FECA215A
:103170004DF21750FEF72FFE02214DF21850FEF7C8
:103180002AFE00214DF21950FEF725FE02214DF2D4
:103190001A50FEF720FE01214DF21B50FEF71BFED8
:1031A00002214DF21C50FEF716FE34214DF21D5047
:1031B000FEF711FE02214DF21E50FEF70CFE6721B4
:1031C0004DF21F50FEF707FE02214DF22050FEF790
:1031D00002FE84214DF22150FEF7FDFD02214DF249
:1031E0002250FEF7F8FDA4214DF22350FEF7F3FD27
:1031F00002214DF22450FEF7EEFDB7214DF225508D
:10320000FEF7E9FD02214DF22650FEF7E4FDCF2145
:103210004DF22750FEF7DFFD02214DF22850FEF758
:10322000DAFDDE214DF22950FEF7D5FD02214DF2E7
:103230002A50FEF7D0FDF2214DF22B50FEF7CBFDC8
:1032400002214DF22C50FEF7C6FDFE214DF22D500D
:10325000FEF7C1FD03214DF22E50FEF7BCFD1021FB
:103260004DF22F50FEF7B7FD03214DF23050FEF71F
:10327000B2FD33214DF23150FEF7ADFD03214DF289
:103280003250FEF7A8FD6D214DF23350FEF7A3FD3D
:1032900000214FF45640FEF79EFD33214DF20160B0
:1032A000FEF799FD00214DF20260FEF794FD3421F6
:1032B0004DF20360FEF78FFD00214DF20460FEF732
:1032C0008AFD3A214DF20560FEF785FD00214DF2A1
:1032D0000660FEF780FD4A214DF20760FEF77BFD98
:1032E00000214DF20860FEF776FD5C214DF2096089
:1032F000FEF771FD00214DF20A60FEF76CFD8121A1
:103300004DF20B60FEF767FD00214DF20C60FEF7F9
:1033100062FDA6214DF20D60FEF75DFD00214DF22C
:103320000E60FEF758FDE5214DF20F60FEF753FDEC
:1033300001214DF21060FEF74EFD13214DF2116098
:10334000FEF749FD01214DF21260FEF744FD5421C4
:103350004DF21360FEF73FFD01214DF21460FEF7C0
:103360003AFD82214DF21560FEF735FD01214DF247
:103370001660FEF730FDCA214DF21760FEF72BFDF7
:1033800002214DF21860FEF726FD00214DF2196072
:10339000FEF721FD02214DF21A60FEF71CFD01210E
:1033A0004DF21B60FEF717FD02214DF21C60FEF787
:1033B00012FD34214DF21D60FEF70DFD02214DF28C
:1033C0001E60FEF708FD67214DF21F60FEF703FD4A
:1033D00002214DF22060FEF7FEFC84214DF22160B7
:1033E000FEF7F9FC02214DF22260FEF7F4FCA42165
:1033F0004DF22360FEF7EFFC02214DF22460FEF750
:10340000EAFCB7214DF22560FEF7E5FC02214DF202
:103410002660FEF7E0FCCF214DF22760FEF7DBFCD3
:1034200002214DF22860FEF7D6FCDE214DF2296024
:10343000FEF7D1FC02214DF22A60FEF7CCFCF2210E
:103440004DF22B60FEF7C7FC02214DF22C60FEF717
:10345000C2FCFE214DF22D60FEF7BDFC03214DF2B2
:103460002E60FEF7B8FC10214DF22F60FEF7B3FC82
:1034700003214DF23060FEF7AEFC33214DF2316096
:10348000FEF7A9FC03214DF23260FEF7A4FC6D218A
:103490004DF23360FEF79FFC55211846FEF79BFC6A
:1034A000AA212846FEF797FC52213046FEF793FCEE
:1034B00008213846FEF78FFC00216046FEF78BFCA2
:1034C000CC215046FEF787FC00215846FEF783FCCE
:1034D00005214046FEF77FFC70214FF43740FEF790
:1034E0007AFC70214BF20170FEF775FC01214FF45C
:1034F0003840FEF770FC03214BF60100FEF76BFC31
:1035000003214BF60200FEF766FC03214BF6030095
:10351000FEF761FC02214FF43C40FEF75CFC002109
:103520004BF60140FEF757FC00214BF60240FEF738
:1035300052FCD0214FF44940FEF74DFC02214CF6DD
:103540000110FEF748FC50214CF60210FEF743FC38
:1035500050214CF60310FEF73EFC50214CF60410AF
:10356000FEF739FC00214FF45450FEF734FC55218E
:103570004FF46850FEF72FFC4FF4885020807820DD
:10358000FEF710FB4FF424502080FDE347F6F001D6
:10359000E520FEF720FC41460120FEF71CFC5146C9
:1035A0000220FEF718FC41F230010320FEF713FC65
:1035B00000210420FEF70FFC40F202210820FEF754
:1035C0000AFC00210920FEF706FC00210A20FEF774
:1035D00002FC00210C20FEF7FEFB00210D20FEF76F
:1035E000FAFB00210F20FEF7F6FB00211020FEF76A
:1035F000F2FB07211120FEF7EEFB00211220FEF75F
:10360000EAFB00211320FEF7E6FB00210720FEF76E
:10361000E2FB41F290611020FEF7DDFB40F2272132
:103620001120FEF7D8FB9D211220FEF7D4FB4FF4AA
:10363000C8511320FEF7CFFB25212920FEF7CBFB35
:103640000D212B20FEF7C7FB07213020FEF7C3FB1F
:1036500040F203313120FEF7BEFB03213220FEF79A
:10366000BAFB40F206213520FEF7B5FB08213620D3
:10367000FEF7B1FB40F206413720FEF7ACFB4FF4FA
:1036800041713820FEF7A7FB07213920FEF7A3FB85
:1036900040F202613C20FEF79EFB08213D20FEF730
:1036A0009AFB00215020FEF796FBEF215120FEF7F8
:1036B00092FB00215220FEF78EFB21465320FEF79D
:1036C0008AFB59466020FEF786FB01216120FEF748
:1036D00082FB00216A20FEF77EFB00218020FEF79E
:1036E0007AFB00218120FEF776FB00218220FEF785
:1036F00072FB00218320FEF76EFB00218420FEF781
:103700006AFB00218520FEF766FB01E00DE0C9E0C1
:1037100010219020FEF75FFB4FF4C0619220FEF76E
:103720005AFB40F233110720FEE341F28F01EC20F7
:10373000FEF751FB41F23421EF20FEF74CFB4146EE
:103740000120FEF748FB51460220FEF744FB41F200
:1037500030010320FEF73FFB00210420FEF73BFB76
:1037600040F202210820FEF736FB00210920FEF777
:1037700032FB00210A20FEF72EFB01210C20FEF770
:103780002AFB00210D20FEF726FB00210F20FEF76B
:1037900022FB00211020FEF71EFB07211120FEF75F
:1037A0001AFB00211220FEF716FB00211320FEF762
:1037B00012FB01210720FEF70EFB3846FEF7F2F957
:1037C00041F290411020FEF706FB40F22721112024
:1037D000FEF701FB3846FEF7E5F98A211220FEF7D5
:1037E000FAFA3846FEF7DEF94FF4D0511320FEF70F
:1037F000F2FA06212920FEF7EEFA0D212B20FEF722
:10380000EAFA3846FEF7CEF900212020FEF7E3FA67
:1038100000212120FEF7DFFA3846FEF7C3F9002128
:103820003020FEF7D8FA40F204613120FEF7D3FAD7
:1038300040F205313220FEF7CEFA00213520FEF7A6
:10384000CAFA40F609413620FEF7C5FA4FF4017175
:103850003720FEF7C0FA40F201313820FEF7BBFAFC
:1038600031463920FEF7B7FA00213C20FEF7B3FAC3
:1038700040F60A213D20FEF7AEFA3846FEF792F9EF
:1038800000215020FEF7A7FAEF215120FEF7A3FAFE
:1038900000215220FEF79FFA21465320FEF79BFAA3
:1038A000594650E100210846FEF795FA41460120AD
:1038B000FEF791FA51460220FEF78DFA41F23001EF
:1038C0000320FEF788FA00210420FEF784FA40F274
:1038D00002210820FEF77FFA00210920FEF77BFA7B
:1038E00000210A20FEF777FA01210C20FEF773FA77
:1038F00000210D20FEF76FFA00210F20FEF76BFA72
:103900003846FEF74FF940F201110720FEF763FA3F
:103910003846FEF747F94FF486511020FEF75BFA60
:1039200007211120FEF757FA5B4659461220FEF791
:1039300052FA4FF430611320FEF74DFA002129208E
:10394000FEF749FA44F210012B20FEF744FA002159
:103950005020FEF740FAEF215120FEF73CFA0021FB
:103960005220FEF738FA21465320FEF734FA4FF47E
:103970001C516020FEF72FFA01216120FEF72BFA7F
:1039800000216A20FEF727FA00218020FEF723FAA3
:1039900000218120FEF71FFA00218220FEF71BFA8A
:1039A00000218320FEF717FA00218420FEF713FA86
:1039B00000218520FEF70FFA10219020FEF70BFA68
:1039C00000219220FEF707FA01219320FEF703FA67
:1039D00019469520FEF7FFF900219720FEF7FBF925
:1039E00000219820FEF7F7F940F27311072081E3D8
:1039F00041F21401E720FEF7EEF941460120FEF7FF
:103A0000EAF94FF400710220FEF7E5F941F23801BE
:103A10000320FEF7E0F940F202210820FEF7DBF96F
:103A200000210920FEF7D7F900210A20FEF7D3F97B
:103A300000210C20FEF7CFF900210D20FEF7CBF975
:103A400000210F20FEF7C7F900211020FEF7C3F96F
:103A500007211120FEF7BFF900211220FEF7BBF964
:103A600000211320FEF7B7F9FE48FEF79BF841F25C
:103A700090611020FEF7AFF940F227211120FEF7E8
:103A8000AAF93846FEF78EF80C211220FEF7A3F9AA
:103A90003846FEF787F84FF400611320FEF79BF9D4
:103AA00011212920FEF797F90B212B20FEF793F91E
:103AB0003846FEF777F800212020FEF78CF92146E2
:103AC0002120FEF788F900213020FEF784F94FF419
:103AD000837319463120FEF77EF900213220FEF76C
:103AE0007AF94FF401713520FEF775F941F20A6158
:103AF0003620FEF770F931463720FEF76CF919468B
:103B00003820FEF768F931463920FEF764F940F2B3
:103B100002413C20FEF75FF940F60F413D20FEF7E1
:103B20005AF900215020FEF756F9EF215120FEF7F7
:103B300052F900215220FEF74EF921465320FEF79C
:103B40004AF94FF41C516020FEF745F9012161202C
:103B5000FEF741F900216A20FEF73DF9002180209F
:103B6000FEF739F900218120FEF735F90021822086
:103B7000FEF731F900218320FEF72DF90021842082
:103B8000FEF729F900218520FEF725F91021902064
:103B9000FEF721F94FF4C0619220FDE34146012078
:103BA000FEF719F951460220FEF715F941F23001EE
:103BB0000320FEF710F900210420FEF70CF940F273
:103BC00007210820FEF707F900210920FEF703F975
:103BD00000210A20FEF7FFF800210C20FEF7FBF879
:103BE00000210D20FEF7F7F800210F20FEF7F3F873
:103BF0002846FDF7D7FF41F2B0611020FEF7EBF841
:103C000001211120FEF7E7F801211720FEF7E3F864
:103C10004FF49C711220FEF7DEF84FF40061132080
:103C2000FEF7D9F809212920FEF7D5F809212A2025
:103C3000FEF7D1F80021A420FEF7CDF80021502096
:103C4000FEF7C9F8EF215120FEF7C5F800215220F8
:103C5000FEF7C1F821465320FEF7BDF84FF41C5182
:103C60006020FEF7B8F801216120FEF7B4F80021CA
:103C70006A20FEF7B0F800218020FEF7ACF80021A2
:103C80008120FEF7A8F800218220FEF7A4F8002189
:103C90008320FEF7A0F800218420FEF79CF8002185
:103CA0008520FEF798F813219020FEF794F8002164
:103CB0009220FEF790F803219320FEF78CF85946E6
:103CC0009520FEF788F840F273110720FEF783F87D
:103CD00038460EE100210720FEF77DF83846FDF753
:103CE00061FF4FF48E711220FEF775F80121A420B8
:103CF000FEF771F80F210820FEF76DF808210A2061
:103D0000FEF769F808210D20FEF765F833463146C5
:103D10003020FEF760F807213120FEF75CF840F212
:103D200003613220FEF757F8564651463320FEF71E
:103D300052F840F202213420FEF74DF802213520DE
:103D4000FEF749F841F60F713620FEF744F81946A0
:103D50003720FEF740F800213820FEF73CF800211C
:103D60003920FEF738F819463A20FEF734F80021DA
:103D70003B20FEF730F807213C20FEF72CF800210D
:103D80003D20FEF728F800E0ECE33846FDF70AFF97
:103D900001210720FEF71FF801211720FEF71BF86D
:103DA0003846FDF7FFFE4FF4BD511020FEF713F823
:103DB00040F217211120FEF70EF84FF48F711220F8
:103DC000FEF709F84FF470611320FEF704F80021A4
:103DD0002A20FEF700F80A212920FDF7FCFF4FF406
:103DE0009F711220FDF7F7FF00215020FDF7F3FF30
:103DF000EF215120FDF7EFFF00215220FDF7EBFFEF
:103E000021465320FDF7E7FF4FF41C516020FDF7DA
:103E1000E2FF01216120FDF7DEFF00216A20FDF7AE
:103E2000DAFF00218020FDF7D6FF00218120FDF779
:103E3000D2FF00218220FDF7CEFF00218320FDF775
:103E4000CAFF00218420FDF7C6FF00218520FDF771
:103E5000C2FF13219020FDF7BEFF59469220FDF7C7
:103E6000BAFF01E0400D030005219320FDF7B3FFE9
:103E700000219520FDF7AFFF00219720FDF7ABFF54
:103E800000219820FDF7A7FF41460120FDF7A3FF81
:103E900031460220FDF79FFF41F238010320FDF774
:103EA0009AFF00210420FDF796FF00210C20FDF76A
:103EB00092FF00210F20FDF78EFF00212020FDF74B
:103EC0008AFF00212120FDF786FF21210720FDF731
:103ED00082FF2846FDF766FE61210720FDF77BFF84
:103EE0002846FDF75FFE40F273110720FDF773FFD0
:103EF0002846FDF757FE35E300210846FDF76BFF26
:103F000000210846FDF767FF00210846FDF763FF23
:103F100000210846FDF75FFF0121A420FDF75BFFAC
:103F20002846FDF73FFE00E0E0E04FF41C56314626
:103F30006020FDF750FF40F2022739460820FDF7C8
:103F40004AFF4FF405713020FDF745FF43F215712C
:103F50003120FDF740FF40F204613220FDF73BFFC6
:103F600040F616613320FDF736FF42F2112134206E
:103F7000FDF731FF4FF4A8513520FDF72CFF48F233
:103F800007513620FDF727FF41F207413720FDF7A3
:103F900022FF41F203413820FDF71DFF2021392087
:103FA000FDF719FF1A219020FDF715FF00211020C1
:103FB000FDF711FF07211120FDF70DFF0021122051
:103FC000FDF709FF00211320FDF705FF2846FDF747
:103FD000E9FD4FF4E6611020FDF7FDFE40F23711D8
:103FE0001120FDF7F8FE2846FDF7DCFD4FF4DC71EB
:103FF0001220FDF7F0FE2846FDF7D4FD4FF4706166
:104000001320FDF7E8FE80212A20FDF7E4FE482179
:104010002920FDF7E0FE2846FDF7C4FD41460120BA
:10402000FDF7D9FE51460220FDF7D5FE41F23801D9
:104030000320FDF7D0FE39460820FDF7CCFE002115
:104040000A20FDF7C8FE00210C20FDF7C4FE002168
:104050000D20FDF7C0FE30210E20FDF7BCFE002133
:104060005020FDF7B8FEEF215120FDF7B4FE0021EE
:104070005220FDF7B0FE21465320FDF7ACFE31463D
:104080006020FDF7A8FE01216120FDF7A4FE0021BC
:104090006A20FDF7A0FE11219020FDF79CFE4FF451
:1040A000C0619220FDF797FE40F202419320FDF798
:1040B00092FE02219420FDF78EFE2846FDF772FD48
:1040C00001210720FDF787FE2846FDF76BFD6121E2
:1040D0000720FDF780FE40F273110720FDF77BFEFD
:1040E00000212020FDF777FE00212120FDF773FE3F
:1040F0002221002034E200210846FDF76CFE002159
:104100000846FDF768FE2846FDF74CFD00210846ED
:10411000FDF761FE00210846FDF75DFE002108461F
:10412000FDF759FE00210846FDF755FE0121A420A8
:10413000FDF751FE2846FDF735FD4FF41C51602078
:10414000FDF749FE40F606010820FDF744FE40F267
:10415000037319463020FDF73EFE01213120FDF7A3
:104160003AFE04213220FDF736FE4FF481713320F0
:10417000FDF731FE5E4659463420FDF72CFE40F235
:1041800003113520FDF727FE1F213620FDF723FE02
:1041900019463720FDF71FFE01213820FDF71BFED1
:1041A00004213920FDF717FE15219020FDF713FE9D
:1041B0004FF482611020FDF70EFE40F247211120DE
:1041C000FDF709FE4FF4DE711220FDF704FE4FF4F7
:1041D00060611320FDF7FFFDFE48FDF7E3FC474655
:1041E00041460120FDF7F7FD4FF400710220FDF775
:1041F000F2FD41F230010320FDF7EDFD08210A2018
:10420000FDF7E9FD00210C20FDF7E5FD20210E2042
:10421000FDF7E1FD00210F20FDF7DDFD002120204D
:10422000FDF7D9FD00212120FDF7D5FD3D212A20F4
:10423000FDF7D1FD2846FDF7B5FC2D212920FDF71E
:10424000CAFD00215020FDF7C6FD4DF2EF015120BF
:10425000FDF7C1FD00215220FDF7BDFD2146532091
:10426000FDF7B9FD00216120FDF7B5FD00216A20B1
:10427000FDF7B1FD31469220FDF7ADFD05219320FC
:10428000FDF7A9FD3946FFF7B1BB01210020FDF77D
:10429000A2FD4AF6A4010320FDF79DFD00210C209C
:1042A000FDF799FD40F60C010D20FDF794FD4FF44C
:1042B0002C510E20FDF78FFDB0211E20FDF78BFD48
:1042C00042F63F310120FDF786FD4FF4C061022028
:1042D000FDF781FD00211020FDF77DFD46F27801FC
:1042E0001120FDF778FD00210520FDF774FD002168
:1042F0000620FDF770FD4EF61C711620FDF76BFDD4
:1043000003211720FDF767FD40F233210720FDF759
:1043100062FD00210B20FDF75EFD00210F20FDF75F
:104320005AFD00214120FDF756FD00214220FDF7F6
:1043300052FD00214820FDF74EFD21464920FDF7A2
:104340004AFD00214A20FDF746FD00214B20FDF7E4
:1043500042FD4FF46F414420FDF73DFD0021452013
:10436000FDF739FD21464620FDF735FD3146302069
:10437000FDF731FD4FF4017319463120FDF72BFD98
:1043800019463220FDF727FD40F202542146332022
:10439000FDF721FD611D00E09DE13420FDF71BFDCF
:1043A00019463520FDF717FD19463620FDF713FD98
:1043B00021463720FDF70FFD40F2023319463A201F
:1043C000FDF709FD19463B20FDF705FD00212320DF
:1043D000FDF701FD00212420FDF7FDFC4FF4004115
:1043E0002520FDF7F8FC00214F20FDF7F4FC00210B
:1043F0004E20B5E001210020FDF7EDFC42F21074E3
:104400002046FDF7CFFB41F228611020FDF7E3FCC9
:104410000E211220FDF7DFFC40F639211320FDF7B5
:10442000DAFC2046FDF7BEFB40211120FDF7D3FC4E
:1044300050211520FDF7CFFC2046FDF7B3FB1E21D0
:104440001220FDF7C8FC2046FDF7ACFB4FF4B1513C
:104450001020FDF7C0FC42F639211320FDF7BBFC0C
:104460002046FDF79FFB434641460120FDF7B3FC84
:1044700059460220FDF7AFFC41F238010320FDF759
:10448000AAFC40F202210820FDF7A5FC08210A2021
:10449000FDF7A1FC00213020FDF79DFC40F2024118
:1044A0003120FDF798FC4FF483713220FDF793FC27
:1044B00040F203513320FDF78EFC4FF4827134201B
:1044C000FDF789FC40F201313520FDF784FC3146CF
:1044D0003620FDF780FC40F205313720FDF77BFCEC
:1044E0004FF402713820FDF776FC40F60B7139204D
:1044F000FDF771FC02214120FDF76DFC4FF41C51CA
:104500006020FDF768FC01216120FDF764FC4FF499
:1045100004719020FDF75FFC4FF485719220FDF748
:104520005AFC04219320FDF756FC1946A020FDF704
:1045300052FC01210720FDF74EFC21210720FDF749
:104540004AFC23210720FDF746FC33210720FDF715
:1045500042FC40F233110720FDF73DFC0021A02072
:10456000FDF739FC0020FDF718FE01211A48FCF781
:104570008CFD4846FDF723FF21B0BDE8F08F3021C8
:104580001520FDF728FC10219A20FDF724FC20219E
:104590001120FDF720FC43F228411020FDF71BFC01
:1045A00002211220FDF717FC41F238011320FDF71C
:1045B00012FC49F640442046FDF7F4FA1221084661
:1045C000FDF709FC2046FDF7EDFA43F220411020EB
:1045D00004E00000C0D40100000C0140FDF7FBFB2B
:1045E00043F238011320FDF7F6FBF648FDF7DAFA3F
:1045F00000213020FDF7EFFB40F202413120FDF7B2
:10460000EAFB40F207313220FDF7E5FB4FF4417140
:104610003320FDF7E0FB04213420FDF7DCFB40F202
:1046200001413520FDF7D7FB31463620FDF7D3FB9E
:1046300040F205313720FDF7CEFB4FF4C263194637
:104640003820FDF7C8FB19463920FDF7C4FB434667
:1046500041460120FDF7BFFB59460220FDF7BBFB99
:1046600041F230010320FDF7B6FB40F608010820B7
:10467000FDF7B1FB08210A20FDF7ADFB4FF41C51FB
:104680006020FDF7A8FB01216120FDF7A4FB4FF49A
:104690009F719020FDF79FFB19469220FDF79BFB31
:1046A00019469320FDF797FB4FF44051A020FDF7EA
:1046B00092FB1021A320FDF78EFB01210720FDF7BF
:1046C0008AFB21210720FDF786FB23210720FDF728
:1046D00082FB33210720FDF77EFB40F23311D2E548
:1046E0002DE9F843B84C1E468046A388089FA3F5E1
:1046F000D040043802D1A079012807D0A2EB0800ED
:10470000401C84B20D46DFF8C49228E02588084694
:10471000A91AA5EB08030025A57132462A25658153
:104720002B26491E5B1EA68189B29BB20097FFF71C
:10473000D7FF0120A0716681A581BDE8F8832946D5
:104740004046FDF76DFBFDF755FB0020494602E0B2
:10475000401C0F8080B2A042FAD36D1CADB2B542AE
:10476000EDD9EAE72DE9F0478246A2EB0A00401CAA
:104770000E4687B2981B401C85B20024DFF84C928D
:10478000DDF8208015E0301981B25046FDF748FB76
:10479000FDF730FB0020494607E000BF04FB05039E
:1047A000401C38F813200A8080B2B842F6D3641C4B
:1047B000A4B2AC42E7D3BDE8F0872DE9FE4F161A4C
:1047C000CDE900104FF000085D1A47464FF0FF306A
:1047D000002E02DD4FF0010102E003D14FF0000195
:1047E0008B4602E08346C6F10006002D02DD4FF045
:1047F000010002E003D14FF00000824602E0824651
:10480000C5F10005AE4201DD344600E02C46601CD7
:104810004FF00009029018E0009881B2019880B230
:10482000FDF775FCB0442F44A04504DD0198A8EBCA
:10483000040858440190A74203DD00983F1B5044F0
:10484000009009F101001FFA80F902998945E3DD22
:10485000BDE8FE8FF0B51C4615460E4607460B46D2
:10486000FFF7ABFF3A46234631461046FFF7A5FF58
:1048700023462A4619463846FFF79FFF2A46234615
:104880003146BDE8F040104697E72DE9FC4F8046E1
:104890000025144603200F46A0EB440649E0381BD0
:1048A00081B208EB050A01901FFA8AF0FDF72FFC90
:1048B000781B81B208EB040900901FFA89F0FDF71C
:1048C00026FC07EB050B1FFA8BF11FFA89F0FDF7A9
:1048D0001EFC07EB04091FFA89F11FFA8AF0FDF7A5
:1048E00016FCA8EB050A1FFA89F11FFA8AF0FDF7FA
:1048F0000EFCA8EB04091FFA8BF11FFA89F0FDF7F3
:1049000006FC019881B21FFA8AF0FDF700FC0098BE
:1049100081B21FFA89F0FDF7FAFB6D1C002E03DA55
:1049200006EB8506B61D04E0281B06EB8006641E18
:104930000A36A542B3DDBDE8FC8F2DE9FF4F0C46DA
:104940008A4623490546203AB1F80080D1B20D9835
:104950001E460291A0B3002083E00C2E0ED01D480D
:10496000029900EB011100BF11F809704FF0000B24
:1049700038060AD51649A1F8008009E0029800EB34
:104980004001154800EB8101EEE7114841880180A4
:1049900021462846FDF7BBFB7806070E0A48641C33
:1049A000A4B20088A8425FD9A4EB0A00B04215D196
:1049B00005486D1CADB200885446A84254D914E095
:1049C00016E0000070110100380000200008006CA3
:1049D0002E00002058600008E45B00080BF1010085
:1049E00000F0FF0BBBF1080FC2D309F10100C0B208
:1049F0008146B042B1D337E00C2E21D073480299E2
:104A000000EB01114FF0000B11F80970380603D5C7
:104A100021462846FDF77BFB7806070E6C48641C90
:104A2000A4B24088A8421FD9A4EB0A00B0420ED11C
:104A300067486D1CADB200885446A84214D90DE0F9
:104A4000029800EB4001634800EB8101DAE70BF1CB
:104A5000010000F0FF0BBBF1080FD7D309F10100F3
:104A6000C0B28146B042C7D35B49A1F80080BDE81F
:104A7000FF8F0246012000E05043491EC9B2FBD21D
:104A800070472DE9FF4F81B00026DDF838A01D46A4
:104A9000934681463446B0464FEA5A0727E0281B22
:104AA000401EC1B20A20FFF7E4FFBBFBF0F00A2171
:104AB000B0FBF1F201FB120026B9691E8C4201DA4B
:104AC00048B101263030C2B207FB049080B2534691
:104AD000CDF8008006E007FB049080B25346202208
:104AE000CDF800800299FFF728FF641CE4B2AC42C5
:104AF000D5D305B041E52DE9FF4F81B04FF0000857
:104B0000DDE90EBA1E46814644460AF001054FEA29
:104B10005B072CE0301B401EC1B20A20FFF7A9FF43
:104B20000399B1FBF0F00A21B0FBF1F201FB120096
:104B3000B8F1000F05D1711E8C4202DA48B14FF076
:104B400001083030C2B207FB049080B25B4600958A
:104B500008E05FEA0A6007FB049080B25B460095BC
:104B600008D530220299FFF7E8FE641CE4B2B44293
:104B7000D0D3BEE72022F5E72DE9F84F044600F038
:104B8000FF0910190D46DDE90AB61FFA80F8581919
:104B900087B24FF0000A12E0444503D305EB0B0047
:104BA0004C4685B2BD420FD25B4629462046CDF821
:104BB00000A0FFF7C2FE04EB5B0084B2761C3278E3
:104BC000A2F120005E28E7D9BDE8F88F5860000800
:104BD00038000020E45B00082E0000202DE9F041A1
:104BE000FB4C0E46054620212046FCF750FA1021CA
:104BF0002046FCF74CFA7E2000EA450708253806D7
:104C00004FF08001204602D5FCF73FFA01E0FCF7A7
:104C10003EFA20212046FCF738FA7806070E2021BC
:104C20002046FCF734FA6D1E15F0FF05E7D1082584
:104C300030064FF08001204602D5FCF726FA01E04D
:104C4000FCF725FA20212046FCF71FFA7006060E15
:104C500020212046FCF71BFA6D1E15F0FF05E7D159
:104C600010212046FCF711FA2046BDE8F041202132
:104C7000FCF70BBA2DE9F041D54C06460025102172
:104C80002046FCF704FA7E2000EA460040F0800748
:104C9000082620212046FCF7FAF938064FF080015B
:104CA000204602D5FCF7F1F901E0FCF7F0F92021EC
:104CB0002046FCF7EAF97806070E761E16F0FF0686
:104CC000E7D1082620212046FCF7E1F96806050E09
:104CD00020212046FCF7D9F940212046FCF7C1F9F4
:104CE000012801D145F00105761E16F0FF06E9D135
:104CF00010212046FCF7C9F920212046FCF7C5F910
:104D00002846BDE8F08170B50C460546FFF7B2FFB6
:104D100040EA04012846BDE870405FE770B50C46E4
:104D20000546FFF7A7FF20EA04012846BDE87040CA
:104D300054E72DE9FF5F0027FE25DDF838A0164671
:104D40008B468146B8460C2805D0B9F10E0F05D127
:104D50001227102001E077273020804647F080019D
:104D60000220FFF73BFF80210420FFF7D7FF00213F
:104D70000120FFF733FF80210A20FFF7C4FF002442
:104D800006E000BF1BF804100920FFF727FF641C92
:104D9000B442F7D349460120FFF720FFB9F10C0FC9
:104DA00003D180210D20FFF7AEFF4FF4FA660420F7
:104DB000FFF760FF0446761E04D0E00702D114EA34
:104DC000080FF4D080210D20FFF7A8FF36B1062090
:104DD000FFF750FF10F01B0F0CD0FE2580210C2098
:104DE000FFF791FF00210120FFF7F8FE04B02846ED
:104DF000BDE8F09F00253C40E00700D0FF25B9F159
:104E00000C0FEBD10A20FFF735FF04460C20FFF70B
:104E100031FF10F007004FEAC40101D00839014406
:104E2000CAF8001024B1122C04D91224002603E081
:104E30000124FBE7002605E00920FFF71BFF03998B
:104E40008855761CA642F7D3C8E730B50C46054610
:104E5000082187B00846FFF761FF07210D20FFF703
:104E6000BDFE0D20FFF706FF03211420FFF74BFFC7
:104E700006A801AB00908DF80450012219460C20C1
:104E8000FFF757FF10B90699102902D0FE2007B08E
:104E900030BD9DF8041021709DF805106170F6E793
:104EA00070B50646082188B000240846FFF736FF93
:104EB00000210D20FFF792FE80210E20FFF72EFF2C
:104EC00093208DF8040020208DF8050006A801AB82
:104ED0000090022219460C20FFF72BFF05000DD190
:104EE000002101A8425C7254425C491C5440C9B282
:104EF0000429F7D3405CA04200D0FE2580210E207B
:104F0000FFF701FF284608B070BD2DE9F0410E46BD
:104F10000746154604210520FFF700FF0021012068
:104F2000FFF75CFE80210A20FFF7EDFE002405E07C
:104F3000395D0920FFF752FE641CE4B2B442F7D396
:104F400003210120FFF74AFEFF240520FFF792FE10
:104F5000641E14F0FF0401D04007F6D52220FFF7AD
:104F600089FE28702120FFF785FE6870C9E610B51C
:104F700088B093218DF8041070218DF80510002160
:104F80008DF80A1001AA5418435CA370445C9DF884
:104F90000A30491C6340C9B28DF80A300429F2D3A3
:104FA000072101A8D21DFFF7B0FF08210846FFF72F
:104FB000B5FE06A801AB0090092219460C20FFF7A8
:104FC000B8FE10B90699182900D0FE2008B010BD0F
:104FD0000008014030B587B08DF804008DF8051049
:104FE000002001A9145C0D18401CC0B2AC7006284A
:104FF000F8D300200C181A5C401CC0B2227206289C
:10500000F8D306A800900B460C220E20FFF791FE65
:10501000040004D10820FFF72DFE000700D4FE2471
:10502000204634E730B587B001AC8DF804008DF828
:10503000051000202118155C401CC0B28D70062898
:10504000F8D300216218585C10721878A0225043DF
:105050005A7801256A4300EB02129878491C00EB4C
:105060004005C5EBC01002EBC002D878C9B200EB16
:10507000C00505EB001002EB80001A79062902EB4F
:10508000820200EB42005A791044C5B2DAD306A876
:10509000234600900C2219460E20FFF74AFE10B955
:1050A0000820FFF7E7FD2846F1E630B587B00D464A
:1050B00030218DF8041001AC8DF805000221204646
:1050C000A21CFFF722FF06A801AB0090042219469C
:1050D0000C20FFF72EFE10B90699902901D0FE2072
:1050E000D5E60023E15CE9545B1CDBB2102BF9D35D
:1050F000CDE670B588B00D46A0218DF8041001AC46
:105100008DF8050002212046A21CFFF7FEFE06AE28
:1051100001AB042219460C200096FFF70AFE28BBBB
:105120000698042822D19DF8040000F00F000A28F8
:105130001CD10020295C2154401CC0B21028F9D396
:1051400005AA102101A8FFF7E0FE01AB12221946C3
:105150000C200096FFF7EDFD40B90699042905D112
:105160009DF8041001F00F010A2900D0FE20CAE6C4
:1051700000B587B050208DF8040000208DF80500A0
:105180000DF10602022101A8FFF7BFFE06A801AB40
:105190000090042219460C20FFF7CBFD07B0002039
:1051A00000BD10B50021524C05E0224602235B1CD5
:1051B0009342FCD3491C8142F7D308E710B54D4C0C
:1051C00002212046FBF761FF0120FFF7EAFF0221E1
:1051D0002046FBF75CFF0120FFF7E3FF022120469A
:1051E000FBF753FF0A20FFF7DCFF0220FFF742FD29
:1051F00080280BD1404C01212046FBF746FF0A20B6
:10520000FFF7CFFF01212046FBF741FF0F210120CF
:10521000FFF7E4FC3D211120FFF7E0FC1E212D20CB
:10522000FFF7DCFC00212C20FFF7D8FC8D212A2081
:10523000FFF7D4FC3E212B20FFF7D0FC40211520A6
:10524000FFF7CCFC0020C2E610B51420FFF712FDDA
:10525000800704D10321BDE81040142053E5B6E6D1
:1052600010B5412801D0FF20B1E608210846FFF71C
:1052700055FD3D211120FFF7B1FC86211720FFF7D6
:10528000ADFC7F212620FFF7A9FC1E212D20FFF772
:10529000A5FC00212C20FFF7A1FC8D212A20FFF77F
:1052A0009DFC3E212B20FFF799FC0120FFF779FFA1
:1052B000FFF7CAFF00208AE6032114202EE538B547
:1052C00042F2107469465220FFF7BFFD50B16946A3
:1052D0005220FFF7BAFD28B169465220FFF7B5FD0D
:1052E000002803D12046FCF75DFCEBE738BD000049
:1052F0004019010000080140000C014070B506464D
:1053000000243A4D03E0641CE4B2C82C0FD80221FB
:105310002846FCF792F90028F5D031462846FCF7DC
:1053200048F9002405E0641CE4B2C82C01D900202F
:1053300070BD01212846FCF780F90028F3D02846EB
:10534000FCF739F9C0B270BD30B587B00121082033
:10535000FCF717F801218803FCF71CF84FF46044B0
:10536000ADF8144018208DF817000320204D8DF85B
:10537000160005A92846FBF71AFE21462846FBF72A
:1053800084FE0020ADF800004FF48271ADF80210E9
:10539000ADF804000221ADF806100121ADF80810A7
:1053A0004902ADF80A103821ADF80C10ADF80E0026
:1053B00007200E4CADF8100069462046FCF754F863
:1053C00001212046FCF7CDF8FF20FFF797FF07B03B
:1053D00030BD01460548028822F03802028002886A
:1053E0000A4302800121FCF7BCB8000000380040ED
:1053F000000C014070B586B001214FF49470FBF7AA
:10540000C0FF4FF48054ADF8144010258DF81750AC
:105410000320D74E8DF8160005A93046FBF7C7FDCF
:1054200021463046FBF731FE0420ADF8140001465A
:105430008DF81750CF48FBF728FEC020CE4CADF8B2
:10544000140005A92046FBF7B2FDA015ADF8140025
:1054500028208DF8170005A92046FBF7A8FD4FF47A
:10546000E0712046FBF713FEFFF76EFFC34D0021EE
:105470002846FCF776F80021ADF800104FF4827052
:10548000ADF80200ADF808106015ADF80A0018205C
:10549000ADF80C00ADF804100720ADF80610ADF81B
:1054A0000E10ADF8100069462846FBF7DDFF01211C
:1054B0002846FCF756F840212046FBF7E8FD8021FE
:1054C0002046FBF7E2FD06B070BD2DE9F041DFF8A4
:1054D000A8820F460446154680214046FBF7D7FDBB
:1054E0002046FFF70BFF0646002405E0FF20FFF7EC
:1054F00005FF3855641CE4B2AC42F7D38021404626
:10550000FBF7C3FD3046BDE8F0812DE9F041DFF83F
:1055100068820D460446164680214046FBF7B7FDDB
:105520002046FFF7EBFE0746002405E015F8010BC7
:10553000FFF7E4FE641CE4B2B442F7D38021404696
:10554000FBF7A3FD3846DEE71CB58DA1D1E90001CC
:10555000CDE900010820FFF73CFF05226946302015
:10556000FFF7D3FF052269461020FFF7AEFF0020AA
:1055700069460A5CA52A03D1401CC0B20528F8D3AD
:10558000052801D001201CBD00201CBD70B57A4D3E
:105590000E46044680212846FBF779FD2046FFF79A
:1055A000ADFE04463046FFF7A9FE80212846FBF7F2
:1055B0006CFD204670BD70B56F4D044680212846B5
:1055C000FBF765FD2046FFF799FEFF20FFF796FEEB
:1055D000044680212846FBF758FD204670BD70B573
:1055E00005461020FFF7F5FE634C40212046FBF7EF
:1055F0004EFD20222946A020FFF787FF40212046AC
:10560000FBF743FDA51529462046FBF72AFD002898
:10561000F9D10720FFF7CFFF044601462720FFF707
:10562000B5FFE00605D5FF21E120FFF7AFFF102011
:1056300070BDA00601D5202070BDFF2070BD2DE9F2
:10564000F0470446DDE90856984691460F464EA0BD
:1056500000F03EF9214651A000F03AF9394652A037
:1056600000F036F9494654A000F032F9414652A004
:1056700000F02EF9294652A000F02AF93146BDE883
:10568000F04753A000F024B970B505461020FFF78D
:10569000A0FE0720FFF78FFF044601462720FFF7F3
:1056A00075FF60060AD5202229466120FFF70DFF0D
:1056B000FF21E220FFF76AFF002070BD012070BDCE
:1056C00010B52D4C40212046FBF7E1FC0522444952
:1056D0002A20FFF71AFF01212120FFF757FF0121A0
:1056E0002220FFF753FF28212520FFF74FFF20211D
:1056F0003120FFF74BFF0F212620FFF747FF0F2137
:105700002020FFF743FF2046BDE810404021FBF773
:10571000BCBC10B5184C40212046FBF7B8FC304902
:105720000522491F3020FFF7F0FE05222C492A20D0
:10573000FFF7EBFE01212120FFF728FF01212220A6
:10574000FFF724FF1A212420FFF720FF282125201E
:10575000FFF71CFF0F212620FFF718FF0E21202046
:10576000FFF714FF2046BDE810404021FBF78DBC39
:10577000000C0140001401400020014000380040AE
:10578000A5A5A5A5A50000000A0D4E616D653A5AB4
:1057900068616E6753616E20200D00000D506179C5
:1057A0003A2025640D0000000D202054696D653AF3
:1057B0002025640D000000000D2025640D00000070
:1057C0000D202042616C616E63653A2025640D00F6
:1057D0000D20526573756C743A2025640D0000002D
:1057E0004D66000840EA01039B0703D009E008C9A1
:1057F000121F08C0042AFAD203E011F8013B00F896
:10580000013B521EF9D270472DE9F05F054600209A
:1058100092469B4688460646814640241BE0284621
:1058200041464746224600F042F853465A46C01ABF
:10583000914110D311461846224600F029F82D1A3E
:1058400067EB01084F4622460120002100F020F8B6
:1058500017EB00094E41201EA4F10104DFDC48468D
:1058600031462A464346BDE8F09F0000064C074DEE
:1058700006E0E06840F0010394E807009847103420
:10588000AC42F6D3FAF758FC546600087466000878
:10589000202A04DB203A00FA02F1002070479140F0
:1058A000C2F1200320FA03F3194390407047202AE5
:1058B00004DB203A21FA02F00021704721FA02F3BA
:1058C000D040C2F1200291400843194670470000C1
:1058D0000FB4054B10B503A9044A029800F018F85C
:1058E00010BC5DF814FB00009B1D00083400002074
:1058F00002E008C8121F08C1002AFAD17047704799
:10590000002001E001C1121F002AFBD170470000F6
:105910002DE9FF4F8DB09B460F460446002606E05A
:1059200025280BD05A460F999047641C761C207886
:105930000028F5D111B03046BDE8F08F0025A8460B
:105940000122984900E0054314F8013F203B02FA88
:1059500003F00842F7D120782E2817D114F8010F50
:1059600045F004052A280ED06FF02F022078A0F110
:10597000300109290AD808EB880102EB410100EB4C
:105980000108641CF2E757F8048B641C20786C282B
:105990000DD004DC4C2812D06A2811D104E0742800
:1059A0000DD07A280CD10AE045F4001507E06178A3
:1059B00045F48015814202D1641C05F58015641CF4
:1059C0002278692A45D008DC002AB3D0582A69D049
:1059D000632A10D0642A08D13BE0702A67D0732A6A
:1059E00013D0752A5CD0782A5CD010465A460F999D
:1059F0009047761CD3E017F8040B8DF800000020C8
:105A00008DF80100E946012003E057F8049B4FF0B0
:105A1000FF3069074FF0000501D40AE06D1C4545D1
:105A20000DDA8542FADB19F805100029F6D106E0F7
:105A30006D1C8542FCDB19F805100029F8D12E44B5
:105A400004E019F8010B5A460F9990476D1EF8D2E1
:105A5000A5E00A200021CDE90801C5F30250022883
:105A60000DD001CFC117031E71F100030DDA4FF005
:105A7000000CD0EB0C006CEB01012D2308E0FF1DA6
:105A800027F00707F7E80201EDE72B0504D52B23E4
:105A90008DF8283001233BE0EB0739D02023F7E7CE
:105AA0000A2000E010200021CDE9080107E01020C5
:105AB000002145F00405CDE908014FF00808C5F3C1
:105AC000025002280FD001CF00214FF0000A2B070F
:105AD0001FD5702A0DD0DDE908C38CF0100C5CEAEC
